{
  "abi": [
    {
      "inputs": [
        {
          "internalType": "address",
          "name": "_dyad",
          "type": "address"
        },
        {
          "internalType": "uint256",
          "name": "depositMinimum",
          "type": "uint256"
        },
        {
          "internalType": "bool",
          "name": "withInsiderAllocation",
          "type": "bool"
        }
      ],
      "stateMutability": "nonpayable",
      "type": "constructor"
    },
    {
      "anonymous": false,
      "inputs": [
        {
          "indexed": true,
          "internalType": "address",
          "name": "owner",
          "type": "address"
        },
        {
          "indexed": true,
          "internalType": "address",
          "name": "approved",
          "type": "address"
        },
        {
          "indexed": true,
          "internalType": "uint256",
          "name": "tokenId",
          "type": "uint256"
        }
      ],
      "name": "Approval",
      "type": "event"
    },
    {
      "anonymous": false,
      "inputs": [
        {
          "indexed": true,
          "internalType": "address",
          "name": "owner",
          "type": "address"
        },
        {
          "indexed": true,
          "internalType": "address",
          "name": "operator",
          "type": "address"
        },
        {
          "indexed": false,
          "internalType": "bool",
          "name": "approved",
          "type": "bool"
        }
      ],
      "name": "ApprovalForAll",
      "type": "event"
    },
    {
      "anonymous": false,
      "inputs": [
        {
          "indexed": true,
          "internalType": "address",
          "name": "to",
          "type": "address"
        },
        {
          "indexed": true,
          "internalType": "uint256",
          "name": "id",
          "type": "uint256"
        },
        {
          "indexed": false,
          "internalType": "uint256",
          "name": "amount",
          "type": "uint256"
        }
      ],
      "name": "DyadDeposited",
      "type": "event"
    },
    {
      "anonymous": false,
      "inputs": [
        {
          "indexed": true,
          "internalType": "address",
          "name": "to",
          "type": "address"
        },
        {
          "indexed": true,
          "internalType": "uint256",
          "name": "id",
          "type": "uint256"
        },
        {
          "indexed": false,
          "internalType": "uint256",
          "name": "amount",
          "type": "uint256"
        }
      ],
      "name": "DyadMinted",
      "type": "event"
    },
    {
      "anonymous": false,
      "inputs": [
        {
          "indexed": true,
          "internalType": "address",
          "name": "to",
          "type": "address"
        },
        {
          "indexed": true,
          "internalType": "uint256",
          "name": "id",
          "type": "uint256"
        },
        {
          "indexed": false,
          "internalType": "uint256",
          "name": "amount",
          "type": "uint256"
        }
      ],
      "name": "DyadRedeemed",
      "type": "event"
    },
    {
      "anonymous": false,
      "inputs": [
        {
          "indexed": true,
          "internalType": "address",
          "name": "to",
          "type": "address"
        },
        {
          "indexed": true,
          "internalType": "uint256",
          "name": "id",
          "type": "uint256"
        },
        {
          "indexed": false,
          "internalType": "uint256",
          "name": "amount",
          "type": "uint256"
        }
      ],
      "name": "DyadWithdrawn",
      "type": "event"
    },
    {
      "anonymous": false,
      "inputs": [
        {
          "indexed": true,
          "internalType": "address",
          "name": "to",
          "type": "address"
        },
        {
          "indexed": true,
          "internalType": "uint256",
          "name": "id",
          "type": "uint256"
        }
      ],
      "name": "NftMinted",
      "type": "event"
    },
    {
      "anonymous": false,
      "inputs": [
        {
          "indexed": true,
          "internalType": "address",
          "name": "from",
          "type": "address"
        },
        {
          "indexed": true,
          "internalType": "address",
          "name": "to",
          "type": "address"
        },
        {
          "indexed": true,
          "internalType": "uint256",
          "name": "tokenId",
          "type": "uint256"
        }
      ],
      "name": "Transfer",
      "type": "event"
    },
    {
      "inputs": [],
      "name": "DEPOSIT_MINIMUM",
      "outputs": [
        {
          "internalType": "uint256",
          "name": "",
          "type": "uint256"
        }
      ],
      "stateMutability": "view",
      "type": "function"
    },
    {
      "inputs": [],
      "name": "MAX_COLLATERATION_RATIO",
      "outputs": [
        {
          "internalType": "uint256",
          "name": "",
          "type": "uint256"
        }
      ],
      "stateMutability": "view",
      "type": "function"
    },
    {
      "inputs": [],
      "name": "MAX_SUPPLY",
      "outputs": [
        {
          "internalType": "uint256",
          "name": "",
          "type": "uint256"
        }
      ],
      "stateMutability": "view",
      "type": "function"
    },
    {
      "inputs": [],
      "name": "MAX_XP",
      "outputs": [
        {
          "internalType": "uint256",
          "name": "",
          "type": "uint256"
        }
      ],
      "stateMutability": "view",
      "type": "function"
    },
    {
      "inputs": [],
      "name": "MIN_XP",
      "outputs": [
        {
          "internalType": "uint256",
          "name": "",
          "type": "uint256"
        }
      ],
      "stateMutability": "view",
      "type": "function"
    },
    {
      "inputs": [
        {
          "internalType": "address",
          "name": "to",
          "type": "address"
        },
        {
          "internalType": "uint256",
          "name": "tokenId",
          "type": "uint256"
        }
      ],
      "name": "approve",
      "outputs": [],
      "stateMutability": "nonpayable",
      "type": "function"
    },
    {
      "inputs": [
        {
          "internalType": "address",
          "name": "owner",
          "type": "address"
        }
      ],
      "name": "balanceOf",
      "outputs": [
        {
          "internalType": "uint256",
          "name": "",
          "type": "uint256"
        }
      ],
      "stateMutability": "view",
      "type": "function"
    },
    {
      "inputs": [
        {
          "internalType": "uint256",
          "name": "tokenId",
          "type": "uint256"
        }
      ],
      "name": "burn",
      "outputs": [],
      "stateMutability": "nonpayable",
      "type": "function"
    },
    {
      "inputs": [
        {
          "internalType": "uint256",
          "name": "id",
          "type": "uint256"
        },
        {
          "internalType": "uint256",
          "name": "amount",
          "type": "uint256"
        }
      ],
      "name": "deposit",
      "outputs": [],
      "stateMutability": "nonpayable",
      "type": "function"
    },
    {
      "inputs": [],
      "name": "dyad",
      "outputs": [
        {
          "internalType": "contract DYAD",
          "name": "",
          "type": "address"
        }
      ],
      "stateMutability": "view",
      "type": "function"
    },
    {
      "inputs": [
        {
          "internalType": "uint256",
          "name": "tokenId",
          "type": "uint256"
        }
      ],
      "name": "getApproved",
      "outputs": [
        {
          "internalType": "address",
          "name": "",
          "type": "address"
        }
      ],
      "stateMutability": "view",
      "type": "function"
    },
    {
      "inputs": [
        {
          "internalType": "uint256",
          "name": "",
          "type": "uint256"
        }
      ],
      "name": "idToNft",
      "outputs": [
        {
          "internalType": "uint256",
          "name": "withdrawn",
          "type": "uint256"
        },
        {
          "internalType": "int256",
          "name": "deposit",
          "type": "int256"
        },
        {
          "internalType": "uint256",
          "name": "xp",
          "type": "uint256"
        }
      ],
      "stateMutability": "view",
      "type": "function"
    },
    {
      "inputs": [
        {
          "internalType": "address",
          "name": "owner",
          "type": "address"
        },
        {
          "internalType": "address",
          "name": "operator",
          "type": "address"
        }
      ],
      "name": "isApprovedForAll",
      "outputs": [
        {
          "internalType": "bool",
          "name": "",
          "type": "bool"
        }
      ],
      "stateMutability": "view",
      "type": "function"
    },
    {
      "inputs": [
        {
          "internalType": "uint256",
          "name": "id",
          "type": "uint256"
        }
      ],
      "name": "mintDyad",
      "outputs": [],
      "stateMutability": "payable",
      "type": "function"
    },
    {
      "inputs": [
        {
          "internalType": "address",
          "name": "receiver",
          "type": "address"
        }
      ],
      "name": "mintNft",
      "outputs": [
        {
          "internalType": "uint256",
          "name": "",
          "type": "uint256"
        }
      ],
      "stateMutability": "payable",
      "type": "function"
    },
    {
      "inputs": [
        {
          "internalType": "address",
          "name": "receiver",
          "type": "address"
        },
        {
          "components": [
            {
              "internalType": "uint256",
              "name": "withdrawn",
              "type": "uint256"
            },
            {
              "internalType": "int256",
              "name": "deposit",
              "type": "int256"
            },
            {
              "internalType": "uint256",
              "name": "xp",
              "type": "uint256"
            }
          ],
          "internalType": "struct IdNFT.Nft",
          "name": "nft",
          "type": "tuple"
        },
        {
          "internalType": "uint256",
          "name": "depositMinimum",
          "type": "uint256"
        }
      ],
      "name": "mintNftCopy",
      "outputs": [
        {
          "internalType": "uint256",
          "name": "",
          "type": "uint256"
        }
      ],
      "stateMutability": "payable",
      "type": "function"
    },
    {
      "inputs": [],
      "name": "name",
      "outputs": [
        {
          "internalType": "string",
          "name": "",
          "type": "string"
        }
      ],
      "stateMutability": "view",
      "type": "function"
    },
    {
      "inputs": [],
      "name": "numberOfMints",
      "outputs": [
        {
          "internalType": "uint256",
          "name": "",
          "type": "uint256"
        }
      ],
      "stateMutability": "view",
      "type": "function"
    },
    {
      "inputs": [
        {
          "internalType": "uint256",
          "name": "tokenId",
          "type": "uint256"
        }
      ],
      "name": "ownerOf",
      "outputs": [
        {
          "internalType": "address",
          "name": "",
          "type": "address"
        }
      ],
      "stateMutability": "view",
      "type": "function"
    },
    {
      "inputs": [],
      "name": "pool",
      "outputs": [
        {
          "internalType": "contract Pool",
          "name": "",
          "type": "address"
        }
      ],
      "stateMutability": "view",
      "type": "function"
    },
    {
      "inputs": [
        {
          "internalType": "uint256",
          "name": "id",
          "type": "uint256"
        },
        {
          "internalType": "uint256",
          "name": "amount",
          "type": "uint256"
        }
      ],
      "name": "redeem",
      "outputs": [],
      "stateMutability": "nonpayable",
      "type": "function"
    },
    {
      "inputs": [
        {
          "internalType": "address",
          "name": "from",
          "type": "address"
        },
        {
          "internalType": "address",
          "name": "to",
          "type": "address"
        },
        {
          "internalType": "uint256",
          "name": "tokenId",
          "type": "uint256"
        }
      ],
      "name": "safeTransferFrom",
      "outputs": [],
      "stateMutability": "nonpayable",
      "type": "function"
    },
    {
      "inputs": [
        {
          "internalType": "address",
          "name": "from",
          "type": "address"
        },
        {
          "internalType": "address",
          "name": "to",
          "type": "address"
        },
        {
          "internalType": "uint256",
          "name": "tokenId",
          "type": "uint256"
        },
        {
          "internalType": "bytes",
          "name": "data",
          "type": "bytes"
        }
      ],
      "name": "safeTransferFrom",
      "outputs": [],
      "stateMutability": "nonpayable",
      "type": "function"
    },
    {
      "inputs": [
        {
          "internalType": "address",
          "name": "operator",
          "type": "address"
        },
        {
          "internalType": "bool",
          "name": "approved",
          "type": "bool"
        }
      ],
      "name": "setApprovalForAll",
      "outputs": [],
      "stateMutability": "nonpayable",
      "type": "function"
    },
    {
      "inputs": [
        {
          "internalType": "address",
          "name": "newPool",
          "type": "address"
        }
      ],
      "name": "setPool",
      "outputs": [],
      "stateMutability": "nonpayable",
      "type": "function"
    },
    {
      "inputs": [
        {
          "internalType": "bytes4",
          "name": "interfaceId",
          "type": "bytes4"
        }
      ],
      "name": "supportsInterface",
      "outputs": [
        {
          "internalType": "bool",
          "name": "",
          "type": "bool"
        }
      ],
      "stateMutability": "view",
      "type": "function"
    },
    {
      "inputs": [],
      "name": "symbol",
      "outputs": [
        {
          "internalType": "string",
          "name": "",
          "type": "string"
        }
      ],
      "stateMutability": "view",
      "type": "function"
    },
    {
      "inputs": [
        {
          "internalType": "uint256",
          "name": "index",
          "type": "uint256"
        }
      ],
      "name": "tokenByIndex",
      "outputs": [
        {
          "internalType": "uint256",
          "name": "",
          "type": "uint256"
        }
      ],
      "stateMutability": "view",
      "type": "function"
    },
    {
      "inputs": [
        {
          "internalType": "address",
          "name": "owner",
          "type": "address"
        },
        {
          "internalType": "uint256",
          "name": "index",
          "type": "uint256"
        }
      ],
      "name": "tokenOfOwnerByIndex",
      "outputs": [
        {
          "internalType": "uint256",
          "name": "",
          "type": "uint256"
        }
      ],
      "stateMutability": "view",
      "type": "function"
    },
    {
      "inputs": [
        {
          "internalType": "uint256",
          "name": "tokenId",
          "type": "uint256"
        }
      ],
      "name": "tokenURI",
      "outputs": [
        {
          "internalType": "string",
          "name": "",
          "type": "string"
        }
      ],
      "stateMutability": "view",
      "type": "function"
    },
    {
      "inputs": [],
      "name": "totalSupply",
      "outputs": [
        {
          "internalType": "uint256",
          "name": "",
          "type": "uint256"
        }
      ],
      "stateMutability": "view",
      "type": "function"
    },
    {
      "inputs": [
        {
          "internalType": "address",
          "name": "from",
          "type": "address"
        },
        {
          "internalType": "address",
          "name": "to",
          "type": "address"
        },
        {
          "internalType": "uint256",
          "name": "tokenId",
          "type": "uint256"
        }
      ],
      "name": "transferFrom",
      "outputs": [],
      "stateMutability": "nonpayable",
      "type": "function"
    },
    {
      "inputs": [
        {
          "internalType": "uint256",
          "name": "id",
          "type": "uint256"
        },
        {
          "components": [
            {
              "internalType": "uint256",
              "name": "withdrawn",
              "type": "uint256"
            },
            {
              "internalType": "int256",
              "name": "deposit",
              "type": "int256"
            },
            {
              "internalType": "uint256",
              "name": "xp",
              "type": "uint256"
            }
          ],
          "internalType": "struct IdNFT.Nft",
          "name": "nft",
          "type": "tuple"
        }
      ],
      "name": "updateNft",
      "outputs": [],
      "stateMutability": "nonpayable",
      "type": "function"
    },
    {
      "inputs": [
        {
          "internalType": "uint256",
          "name": "minXP",
          "type": "uint256"
        },
        {
          "internalType": "uint256",
          "name": "maxXP",
          "type": "uint256"
        }
      ],
      "name": "updateXP",
      "outputs": [],
      "stateMutability": "nonpayable",
      "type": "function"
    },
    {
      "inputs": [
        {
          "internalType": "uint256",
          "name": "id",
          "type": "uint256"
        },
        {
          "internalType": "uint256",
          "name": "amount",
          "type": "uint256"
        }
      ],
      "name": "withdraw",
      "outputs": [],
      "stateMutability": "nonpayable",
      "type": "function"
    }
  ],
  "bytecode": {
    "object": "0x6080604052620dbba0600c5561012c600c546200001d9190620008fb565b600d553480156200002d57600080fd5b506040516200374c3803806200374c833981016040819052620000509162000917565b60405180604001604052806008815260200167111650510813919560c21b815250604051806040016040528060048152602001631913919560e21b81525081600090816200009f919062000a13565b506001620000ae828262000a13565b5050600e80546001600160a01b0319166001600160a01b03861617905550600b8290558015620001d957620000f7737eeffd5d089b1351eccc388022d8b823676df424620001e2565b506200011773cad2eada97ad393584fe84a5cca1ef3093e45ae4620001e2565b506200013773414b60745072088d013721b4a28a0559b1a9d213620001e2565b5062000157733682827f48f8e023ee40707dee82620d0b63579f620001e2565b506200017773e779fb090af9dfbb3b4c18ed571ad6390df52ae2620001e2565b5062000197739f919a292e62594f2d8db13f6a4adb1691d6c60d620001e2565b50620001b773f37ec513af2cd91a76d386680fd2df6ba3bb7520620001e2565b50620001d773e9fc93e678f2bde7a0a3ba3d39f505ef63a68c97620001e2565b505b50505062000b21565b600a5461012c620001f260085490565b106200023a5760405162461bcd60e51b815260206004820152601260248201527113585e081cdd5c1c1b1e481c995858da195960721b60448201526064015b60405180910390fd5b620002468282620002f2565b6001600a60008282546200025b9190620008fb565b9091555050600081815260106020526040902060085461012c600c54620002839190620008fb565b6200028f919062000adf565b6200029c906001620008fb565b60028201819055600c541115620002b6576002810154600c555b60405182906001600160a01b038516907ff2b290a76feb54be358b555507421d765609171aefa0646f109a653228ff81b890600090a350919050565b6001600160a01b0382166200034a5760405162461bcd60e51b815260206004820181905260248201527f4552433732313a206d696e7420746f20746865207a65726f2061646472657373604482015260640162000231565b6000818152600260205260409020546001600160a01b031615620003b15760405162461bcd60e51b815260206004820152601c60248201527f4552433732313a20746f6b656e20616c7265616479206d696e74656400000000604482015260640162000231565b620003c160008383600162000493565b6000818152600260205260409020546001600160a01b031615620004285760405162461bcd60e51b815260206004820152601c60248201527f4552433732313a20746f6b656e20616c7265616479206d696e74656400000000604482015260640162000231565b6001600160a01b038216600081815260036020908152604080832080546001019055848352600290915280822080546001600160a01b0319168417905551839291907fddf252ad1be2c89b69c2b068fc378daa952ba7f163c4a11628f55a4df523b3ef908290a45050565b620004ac84848484620004b260201b620015751760201c565b50505050565b620004cb848484846200061660201b620016b51760201c565b6001811115620005445760405162461bcd60e51b815260206004820152603560248201527f455243373231456e756d657261626c653a20636f6e736563757469766520747260448201527f616e7366657273206e6f7420737570706f727465640000000000000000000000606482015260840162000231565b816001600160a01b038516620005a3576200059d81600880546000838152600960205260408120829055600182018355919091527ff3f7a9fe364faab93b216da50a3214154f22a0a2b415b23a84c8169e8b636ee30155565b620005c9565b836001600160a01b0316856001600160a01b031614620005c957620005c98582620006a5565b6001600160a01b038416620005e957620005e38162000752565b6200060f565b846001600160a01b0316846001600160a01b0316146200060f576200060f84826200080c565b5050505050565b6001811115620004ac576001600160a01b0384161562000660576001600160a01b038416600090815260036020526040812080548392906200065a90849062000adf565b90915550505b6001600160a01b03831615620004ac576001600160a01b038316600090815260036020526040812080548392906200069a908490620008fb565b909155505050505050565b60006001620006bf846200085d60201b62000ed61760201c565b620006cb919062000adf565b6000838152600760205260409020549091508082146200071f576001600160a01b03841660009081526006602090815260408083208584528252808320548484528184208190558352600790915290208190555b5060009182526007602090815260408084208490556001600160a01b039094168352600681528383209183525290812055565b600854600090620007669060019062000adf565b6000838152600960205260408120546008805493945090928490811062000791576200079162000af5565b906000526020600020015490508060088381548110620007b557620007b562000af5565b6000918252602080832090910192909255828152600990915260408082208490558582528120556008805480620007f057620007f062000b0b565b6001900381819060005260206000200160009055905550505050565b600062000824836200085d60201b62000ed61760201c565b6001600160a01b039093166000908152600660209081526040808320868452825280832085905593825260079052919091209190915550565b60006001600160a01b038216620008c95760405162461bcd60e51b815260206004820152602960248201527f4552433732313a2061646472657373207a65726f206973206e6f7420612076616044820152683634b21037bbb732b960b91b606482015260840162000231565b506001600160a01b031660009081526003602052604090205490565b634e487b7160e01b600052601160045260246000fd5b80820180821115620009115762000911620008e5565b92915050565b6000806000606084860312156200092d57600080fd5b83516001600160a01b03811681146200094557600080fd5b60208501516040860151919450925080151581146200096357600080fd5b809150509250925092565b634e487b7160e01b600052604160045260246000fd5b600181811c908216806200099957607f821691505b602082108103620009ba57634e487b7160e01b600052602260045260246000fd5b50919050565b601f82111562000a0e57600081815260208120601f850160051c81016020861015620009e95750805b601f850160051c820191505b8181101562000a0a57828155600101620009f5565b5050505b505050565b81516001600160401b0381111562000a2f5762000a2f6200096e565b62000a478162000a40845462000984565b84620009c0565b602080601f83116001811462000a7f576000841562000a665750858301515b600019600386901b1c1916600185901b17855562000a0a565b600085815260208120601f198616915b8281101562000ab05788860151825594840194600190910190840162000a8f565b508582101562000acf5787850151600019600388901b60f8161c191681555b5050505050600190811b01905550565b81810381811115620009115762000911620008e5565b634e487b7160e01b600052603260045260246000fd5b634e487b7160e01b600052603160045260246000fd5b612c1b8062000b316000396000f3fe6080604052600436106102045760003560e01c80636352211e11610118578063b88d4fde116100a0578063d9dee3d11161006f578063d9dee3d1146105e6578063e2bbb158146105fc578063e985e9c51461061c578063e9c2e14b14610665578063fb9103cc1461067857600080fd5b8063b88d4fde1461057a578063c6c533981461059a578063c87b56dd146105b0578063cc672ae2146105d057600080fd5b806395d89b41116100e757806395d89b41146104ef578063a22cb46514610504578063add95a5114610524578063ae34b6e114610544578063b0082cdf1461055a57600080fd5b80636352211e1461047957806370a08231146104995780637cbc2373146104b9578063959f7857146104d957600080fd5b806332cb6b0c1161019b578063441a3e701161016a578063441a3e70146103a25780634437152a146103c257806346e85757146103e2578063483afb2d146104025780634f6ccce71461045957600080fd5b806332cb6b0c146103395780633924bc9a1461034f57806342842e0e1461036257806342966c681461038257600080fd5b806316f0115b116101d757806316f0115b146102ba57806318160ddd146102da57806323b872dd146102f95780632f745c591461031957600080fd5b806301ffc9a71461020957806306fdde031461023e578063081812fc14610260578063095ea7b314610298575b600080fd5b34801561021557600080fd5b506102296102243660046124e0565b61068b565b60405190151581526020015b60405180910390f35b34801561024a57600080fd5b5061025361069c565b604051610235919061254d565b34801561026c57600080fd5b5061028061027b366004612560565b61072e565b6040516001600160a01b039091168152602001610235565b3480156102a457600080fd5b506102b86102b336600461258e565b610755565b005b3480156102c657600080fd5b50600f54610280906001600160a01b031681565b3480156102e657600080fd5b506008545b604051908152602001610235565b34801561030557600080fd5b506102b86103143660046125ba565b61086f565b34801561032557600080fd5b506102eb61033436600461258e565b6108a1565b34801561034557600080fd5b506102eb61012c81565b6102eb61035d36600461269e565b610937565b34801561036e57600080fd5b506102b861037d3660046125ba565b6109a2565b34801561038e57600080fd5b506102b861039d366004612560565b6109bd565b3480156103ae57600080fd5b506102b86103bd3660046126dd565b6109ee565b3480156103ce57600080fd5b506102b86103dd3660046126ff565b610d14565b3480156103ee57600080fd5b506102b86103fd36600461271c565b610d8f565b34801561040e57600080fd5b5061043e61041d366004612560565b60106020526000908152604090208054600182015460029092015490919083565b60408051938452602084019290925290820152606001610235565b34801561046557600080fd5b506102eb610474366004612560565b610de3565b34801561048557600080fd5b50610280610494366004612560565b610e76565b3480156104a557600080fd5b506102eb6104b43660046126ff565b610ed6565b3480156104c557600080fd5b506102b86104d43660046126dd565b610f5c565b3480156104e557600080fd5b506102eb600a5481565b3480156104fb57600080fd5b50610253611190565b34801561051057600080fd5b506102b861051f366004612757565b61119f565b34801561053057600080fd5b50600e54610280906001600160a01b031681565b34801561055057600080fd5b506102eb600b5481565b34801561056657600080fd5b506102b86105753660046126dd565b6111ae565b34801561058657600080fd5b506102b8610595366004612790565b6111f8565b3480156105a657600080fd5b506102eb613a9881565b3480156105bc57600080fd5b506102536105cb366004612560565b611230565b3480156105dc57600080fd5b506102eb600c5481565b3480156105f257600080fd5b506102eb600d5481565b34801561060857600080fd5b506102b86106173660046126dd565b6112a4565b34801561062857600080fd5b50610229610637366004612854565b6001600160a01b03918216600090815260056020908152604080832093909416825291909152205460ff1690565b6102eb6106733660046126ff565b6114c6565b6102b8610686366004612560565b6114e0565b60006106968261173d565b92915050565b6060600080546106ab90612882565b80601f01602080910402602001604051908101604052809291908181526020018280546106d790612882565b80156107245780601f106106f957610100808354040283529160200191610724565b820191906000526020600020905b81548152906001019060200180831161070757829003601f168201915b5050505050905090565b600061073982611762565b506000908152600460205260409020546001600160a01b031690565b600061076082610e76565b9050806001600160a01b0316836001600160a01b0316036107d25760405162461bcd60e51b815260206004820152602160248201527f4552433732313a20617070726f76616c20746f2063757272656e74206f776e656044820152603960f91b60648201526084015b60405180910390fd5b336001600160a01b03821614806107ee57506107ee8133610637565b6108605760405162461bcd60e51b815260206004820152603d60248201527f4552433732313a20617070726f76652063616c6c6572206973206e6f7420746f60448201527f6b656e206f776e6572206f7220617070726f76656420666f7220616c6c00000060648201526084016107c9565b61086a83836117c1565b505050565b61087a335b8261182f565b6108965760405162461bcd60e51b81526004016107c9906128bc565b61086a8383836118c7565b60006108ac83610ed6565b821061090e5760405162461bcd60e51b815260206004820152602b60248201527f455243373231456e756d657261626c653a206f776e657220696e646578206f7560448201526a74206f6620626f756e647360a81b60648201526084016107c9565b506001600160a01b03919091166000908152600660209081526040808320938352929052205490565b600f546000906001600160a01b031633146109645760405162461bcd60e51b81526004016107c990612909565b600061096f85611a38565b60008181526010602052604090819020908601516002820155855181559091506109998285611b36565b50949350505050565b61086a838383604051806020016040528060008152506111f8565b6109c633610874565b6109e25760405162461bcd60e51b81526004016107c9906128bc565b6109eb81611d3d565b50565b6040516331a9108f60e11b815260048101839052829033903090636352211e90602401602060405180830381865afa158015610a2e573d6000803e3d6000fd5b505050506040513d601f19601f82011682018060405250810190610a52919061294d565b6001600160a01b031614610a785760405162461bcd60e51b81526004016107c99061296a565b600e54600f546040516370a0823160e01b81526001600160a01b03918216600482015260009291909116906370a0823190602401602060405180830381865afa158015610ac9573d6000803e3d6000fd5b505050506040513d601f19601f82011682018060405250810190610aed919061299f565b905060008182600e60009054906101000a90046001600160a01b03166001600160a01b03166318160ddd6040518163ffffffff1660e01b8152600401602060405180830381865afa158015610b46573d6000803e3d6000fd5b505050506040513d601f19601f82011682018060405250810190610b6a919061299f565b610b7491906129ce565b610b80906127106129e1565b610b8a91906129f8565b9050613a988110610bcf5760405162461bcd60e51b815260206004820152600f60248201526e4352206973206f766572203135302560881b60448201526064016107c9565b60008581526010602052604090206001810154851315610c3f5760405162461bcd60e51b815260206004820152602560248201527f644e46543a20576974686472617720616d6f756e7420657863656564732064656044820152641c1bdcda5d60da1b60648201526084016107c9565b84816001016000828254610c539190612a1a565b9091555050805485908290600090610c6c908490612a41565b9091555050600f5460405163f3fef3a360e01b8152336004820152602481018790526001600160a01b039091169063f3fef3a390604401600060405180830381600087803b158015610cbd57600080fd5b505af1158015610cd1573d6000803e3d6000fd5b50506040518781528892503391507f97c68706573f736c58fd91ea1dd5982061ea2b11e1ec1647ca0a9e7da2b3ecad9060200160405180910390a3505050505050565b600f546001600160a01b031615610d6d5760405162461bcd60e51b815260206004820152601960248201527f644e46543a20506f6f6c20697320616c7265616479207365740000000000000060448201526064016107c9565b600f80546001600160a01b0319166001600160a01b0392909216919091179055565b600f546001600160a01b03163314610db95760405162461bcd60e51b81526004016107c990612909565b60009182526010602090815260409283902082518155908201516001820155910151600290910155565b6000610dee60085490565b8210610e515760405162461bcd60e51b815260206004820152602c60248201527f455243373231456e756d657261626c653a20676c6f62616c20696e646578206f60448201526b7574206f6620626f756e647360a01b60648201526084016107c9565b60088281548110610e6457610e64612a54565b90600052602060002001549050919050565b6000818152600260205260408120546001600160a01b0316806106965760405162461bcd60e51b8152602060048201526018602482015277115490cdcc8c4e881a5b9d985b1a59081d1bdad95b88125160421b60448201526064016107c9565b60006001600160a01b038216610f405760405162461bcd60e51b815260206004820152602960248201527f4552433732313a2061646472657373207a65726f206973206e6f7420612076616044820152683634b21037bbb732b960b91b60648201526084016107c9565b506001600160a01b031660009081526003602052604090205490565b6040516331a9108f60e11b815260048101839052829033903090636352211e90602401602060405180830381865afa158015610f9c573d6000803e3d6000fd5b505050506040513d601f19601f82011682018060405250810190610fc0919061294d565b6001600160a01b031614610fe65760405162461bcd60e51b81526004016107c99061296a565b600083815260106020526040902080548311156110565760405162461bcd60e51b815260206004820152602860248201527f644e46543a20416d6f756e7420746f2072656465656d2065786365656473207760448201526734ba34323930bbb760c11b60648201526084016107c9565b8281600001600082825461106a91906129ce565b9091555050600e54600f546040516323b872dd60e01b81523360048201526001600160a01b039182166024820152604481018690529116906323b872dd906064016020604051808303816000875af11580156110ca573d6000803e3d6000fd5b505050506040513d601f19601f820116820180604052508101906110ee9190612a6a565b50600f546040516301e9a69560e41b8152336004820152602481018590526001600160a01b0390911690631e9a695090604401600060405180830381600087803b15801561113b57600080fd5b505af115801561114f573d6000803e3d6000fd5b50506040518581528692503391507f978afd9cd3f8b45b5bc6b990498f81efbcd4bbb929648dd2eb337276971de0f29060200160405180910390a350505050565b6060600180546106ab90612882565b6111aa338383611de0565b5050565b600f546001600160a01b031633146111d85760405162461bcd60e51b81526004016107c990612909565b600c548210156111e857600c8290555b600d548111156111aa57600d5550565b611202338361182f565b61121e5760405162461bcd60e51b81526004016107c9906128bc565b61122a84848484611ea6565b50505050565b606061123b82611762565b600061125260408051602081019091526000815290565b90506000815111611272576040518060200160405280600081525061129d565b8061127c84611ed9565b60405160200161128d929190612a87565b6040516020818303038152906040525b9392505050565b600082815260106020526040902080548211156113035760405162461bcd60e51b815260206004820152601f60248201527f644e46543a204465706f73697420657863656564732077697468647261776e0060448201526064016107c9565b818160010160008282546113179190612ab6565b90915550508054829082906000906113309084906129ce565b9091555050600e546040516323b872dd60e01b8152336004820152306024820152604481018490526001600160a01b03909116906323b872dd906064016020604051808303816000875af115801561138c573d6000803e3d6000fd5b505050506040513d601f19601f820116820180604052508101906113b09190612a6a565b50600e54600f5460405163095ea7b360e01b81526001600160a01b0391821660048201526024810185905291169063095ea7b3906044016020604051808303816000875af1158015611406573d6000803e3d6000fd5b505050506040513d601f19601f8201168201806040525081019061142a9190612a6a565b50600f5460405163b6b55f2560e01b8152600481018490526001600160a01b039091169063b6b55f2590602401600060405180830381600087803b15801561147157600080fd5b505af1158015611485573d6000803e3d6000fd5b50506040518481528592503391507fb2b57d77f3386e7108afb8ee9a58008631e884cb4ff8cc775d3d5b6c77a44262906020015b60405180910390a3505050565b6000806114d283611a38565b905061069681600b54611b36565b6040516331a9108f60e11b815260048101829052819033903090636352211e90602401602060405180830381865afa158015611520573d6000803e3d6000fd5b505050506040513d601f19601f82011682018060405250810190611544919061294d565b6001600160a01b03161461156a5760405162461bcd60e51b81526004016107c99061296a565b6111aa826000611b36565b611581848484846116b5565b60018111156115f05760405162461bcd60e51b815260206004820152603560248201527f455243373231456e756d657261626c653a20636f6e7365637574697665207472604482015274185b9cd9995c9cc81b9bdd081cdd5c1c1bdc9d1959605a1b60648201526084016107c9565b816001600160a01b03851661164c5761164781600880546000838152600960205260408120829055600182018355919091527ff3f7a9fe364faab93b216da50a3214154f22a0a2b415b23a84c8169e8b636ee30155565b61166f565b836001600160a01b0316856001600160a01b03161461166f5761166f8582611f6c565b6001600160a01b03841661168b5761168681612009565b6116ae565b846001600160a01b0316846001600160a01b0316146116ae576116ae84826120b8565b5050505050565b600181111561122a576001600160a01b038416156116fb576001600160a01b038416600090815260036020526040812080548392906116f59084906129ce565b90915550505b6001600160a01b0383161561122a576001600160a01b03831660009081526003602052604081208054839290611732908490612a41565b909155505050505050565b60006001600160e01b0319821663780e9d6360e01b14806106965750610696826120fc565b6000818152600260205260409020546001600160a01b03166109eb5760405162461bcd60e51b8152602060048201526018602482015277115490cdcc8c4e881a5b9d985b1a59081d1bdad95b88125160421b60448201526064016107c9565b600081815260046020526040902080546001600160a01b0319166001600160a01b03841690811790915581906117f682610e76565b6001600160a01b03167f8c5be1e5ebec7d5bd14f71427d1e84f3dd0314c0f7b2291e5b200ac8c7c3b92560405160405180910390a45050565b60008061183b83610e76565b600f549091506001600160a01b038581169116148061186b5750806001600160a01b0316846001600160a01b0316145b8061189b57506001600160a01b0380821660009081526005602090815260408083209388168352929052205460ff165b806118bf5750836001600160a01b03166118b48461072e565b6001600160a01b0316145b949350505050565b826001600160a01b03166118da82610e76565b6001600160a01b0316146119005760405162461bcd60e51b81526004016107c990612ade565b6001600160a01b0382166119625760405162461bcd60e51b8152602060048201526024808201527f4552433732313a207472616e7366657220746f20746865207a65726f206164646044820152637265737360e01b60648201526084016107c9565b61196f838383600161214c565b826001600160a01b031661198282610e76565b6001600160a01b0316146119a85760405162461bcd60e51b81526004016107c990612ade565b600081815260046020908152604080832080546001600160a01b03199081169091556001600160a01b0387811680865260038552838620805460001901905590871680865283862080546001019055868652600290945282852080549092168417909155905184937fddf252ad1be2c89b69c2b068fc378daa952ba7f163c4a11628f55a4df523b3ef91a4505050565b600a5461012c611a4760085490565b10611a895760405162461bcd60e51b815260206004820152601260248201527113585e081cdd5c1c1b1e481c995858da195960721b60448201526064016107c9565b611a938282612158565b6001600a6000828254611aa69190612a41565b9091555050600081815260106020526040902060085461012c600c54611acc9190612a41565b611ad691906129ce565b611ae1906001612a41565b60028201819055600c541115611afa576002810154600c555b60405182906001600160a01b038516907ff2b290a76feb54be358b555507421d765609171aefa0646f109a653228ff81b890600090a350919050565b60003411611b955760405162461bcd60e51b815260206004820152602660248201527f596f75206e65656420746f2073656e6420736f6d652045544820746f206d696e6044820152651d08191e585960d21b60648201526084016107c9565b600f54604051633ee440f360e21b8152600481018390526000916001600160a01b03169063fb9103cc90349060240160206040518083038185885af1158015611be2573d6000803e3d6000fd5b50505050506040513d601f19601f82011682018060405250810190611c07919061299f565b600e54600f5460405163095ea7b360e01b81526001600160a01b03918216600482015260248101849052929350169063095ea7b3906044016020604051808303816000875af1158015611c5e573d6000803e3d6000fd5b505050506040513d601f19601f82011682018060405250810190611c829190612a6a565b50600f5460405163b6b55f2560e01b8152600481018390526001600160a01b039091169063b6b55f2590602401600060405180830381600087803b158015611cc957600080fd5b505af1158015611cdd573d6000803e3d6000fd5b50505060008481526010602052604081206001018054849350909190611d04908490612ab6565b9091555050604051818152839033907f3a7ec3c4655340144c5d88cd1e88cf7146e64e9a6d3db1b306f130db3579fdb4906020016114b9565b6000611d4882610e76565b9050611d5881600084600161214c565b611d6182610e76565b600083815260046020908152604080832080546001600160a01b03199081169091556001600160a01b0385168085526003845282852080546000190190558785526002909352818420805490911690555192935084927fddf252ad1be2c89b69c2b068fc378daa952ba7f163c4a11628f55a4df523b3ef908390a45050565b816001600160a01b0316836001600160a01b031603611e415760405162461bcd60e51b815260206004820152601960248201527f4552433732313a20617070726f766520746f2063616c6c65720000000000000060448201526064016107c9565b6001600160a01b03838116600081815260056020908152604080832094871680845294825291829020805460ff191686151590811790915591519182527f17307eab39ab6107e8899845ad3d59bd9653f200f220920489ca2b5937696c3191016114b9565b611eb18484846118c7565b611ebd848484846122f1565b61122a5760405162461bcd60e51b81526004016107c990612b23565b60606000611ee6836123f2565b600101905060008167ffffffffffffffff811115611f0657611f066125fb565b6040519080825280601f01601f191660200182016040528015611f30576020820181803683370190505b5090508181016020015b600019016f181899199a1a9b1b9c1cb0b131b232b360811b600a86061a8153600a8504945084611f3a57509392505050565b60006001611f7984610ed6565b611f8391906129ce565b600083815260076020526040902054909150808214611fd6576001600160a01b03841660009081526006602090815260408083208584528252808320548484528184208190558352600790915290208190555b5060009182526007602090815260408084208490556001600160a01b039094168352600681528383209183525290812055565b60085460009061201b906001906129ce565b6000838152600960205260408120546008805493945090928490811061204357612043612a54565b90600052602060002001549050806008838154811061206457612064612a54565b600091825260208083209091019290925582815260099091526040808220849055858252812055600880548061209c5761209c612b75565b6001900381819060005260206000200160009055905550505050565b60006120c383610ed6565b6001600160a01b039093166000908152600660209081526040808320868452825280832085905593825260079052919091209190915550565b60006001600160e01b031982166380ac58cd60e01b148061212d57506001600160e01b03198216635b5e139f60e01b145b8061069657506301ffc9a760e01b6001600160e01b0319831614610696565b61122a84848484611575565b6001600160a01b0382166121ae5760405162461bcd60e51b815260206004820181905260248201527f4552433732313a206d696e7420746f20746865207a65726f206164647265737360448201526064016107c9565b6000818152600260205260409020546001600160a01b0316156122135760405162461bcd60e51b815260206004820152601c60248201527f4552433732313a20746f6b656e20616c7265616479206d696e7465640000000060448201526064016107c9565b61222160008383600161214c565b6000818152600260205260409020546001600160a01b0316156122865760405162461bcd60e51b815260206004820152601c60248201527f4552433732313a20746f6b656e20616c7265616479206d696e7465640000000060448201526064016107c9565b6001600160a01b038216600081815260036020908152604080832080546001019055848352600290915280822080546001600160a01b0319168417905551839291907fddf252ad1be2c89b69c2b068fc378daa952ba7f163c4a11628f55a4df523b3ef908290a45050565b60006001600160a01b0384163b156123e757604051630a85bd0160e11b81526001600160a01b0385169063150b7a0290612335903390899088908890600401612b8b565b6020604051808303816000875af1925050508015612370575060408051601f3d908101601f1916820190925261236d91810190612bc8565b60015b6123cd573d80801561239e576040519150601f19603f3d011682016040523d82523d6000602084013e6123a3565b606091505b5080516000036123c55760405162461bcd60e51b81526004016107c990612b23565b805181602001fd5b6001600160e01b031916630a85bd0160e11b1490506118bf565b506001949350505050565b60008072184f03e93ff9f4daa797ed6e38ed64bf6a1f0160401b83106124315772184f03e93ff9f4daa797ed6e38ed64bf6a1f0160401b830492506040015b6d04ee2d6d415b85acef8100000000831061245d576d04ee2d6d415b85acef8100000000830492506020015b662386f26fc10000831061247b57662386f26fc10000830492506010015b6305f5e1008310612493576305f5e100830492506008015b61271083106124a757612710830492506004015b606483106124b9576064830492506002015b600a83106106965760010192915050565b6001600160e01b0319811681146109eb57600080fd5b6000602082840312156124f257600080fd5b813561129d816124ca565b60005b83811015612518578181015183820152602001612500565b50506000910152565b600081518084526125398160208601602086016124fd565b601f01601f19169290920160200192915050565b60208152600061129d6020830184612521565b60006020828403121561257257600080fd5b5035919050565b6001600160a01b03811681146109eb57600080fd5b600080604083850312156125a157600080fd5b82356125ac81612579565b946020939093013593505050565b6000806000606084860312156125cf57600080fd5b83356125da81612579565b925060208401356125ea81612579565b929592945050506040919091013590565b634e487b7160e01b600052604160045260246000fd5b604051601f8201601f1916810167ffffffffffffffff8111828210171561263a5761263a6125fb565b604052919050565b60006060828403121561265457600080fd5b6040516060810181811067ffffffffffffffff82111715612677576126776125fb565b80604052508091508235815260208301356020820152604083013560408201525092915050565b600080600060a084860312156126b357600080fd5b83356126be81612579565b92506126cd8560208601612642565b9150608084013590509250925092565b600080604083850312156126f057600080fd5b50508035926020909101359150565b60006020828403121561271157600080fd5b813561129d81612579565b6000806080838503121561272f57600080fd5b823591506127408460208501612642565b90509250929050565b80151581146109eb57600080fd5b6000806040838503121561276a57600080fd5b823561277581612579565b9150602083013561278581612749565b809150509250929050565b600080600080608085870312156127a657600080fd5b84356127b181612579565b93506020858101356127c281612579565b935060408601359250606086013567ffffffffffffffff808211156127e657600080fd5b818801915088601f8301126127fa57600080fd5b81358181111561280c5761280c6125fb565b61281e601f8201601f19168501612611565b9150808252898482850101111561283457600080fd5b808484018584013760008482840101525080935050505092959194509250565b6000806040838503121561286757600080fd5b823561287281612579565b9150602083013561278581612579565b600181811c9082168061289657607f821691505b6020821081036128b657634e487b7160e01b600052602260045260246000fd5b50919050565b6020808252602d908201527f4552433732313a2063616c6c6572206973206e6f7420746f6b656e206f776e6560408201526c1c881bdc88185c1c1c9bdd9959609a1b606082015260800190565b60208082526024908201527f644e46543a204f6e6c792063616c6c61626c6520627920506f6f6c20636f6e746040820152631c9858dd60e21b606082015260800190565b60006020828403121561295f57600080fd5b815161129d81612579565b6020808252818101527f644e46543a204f6e6c792063616c6c61626c65206279204e4654206f776e6572604082015260600190565b6000602082840312156129b157600080fd5b5051919050565b634e487b7160e01b600052601160045260246000fd5b81810381811115610696576106966129b8565b8082028115828204841417610696576106966129b8565b600082612a1557634e487b7160e01b600052601260045260246000fd5b500490565b8181036000831280158383131683831282161715612a3a57612a3a6129b8565b5092915050565b80820180821115610696576106966129b8565b634e487b7160e01b600052603260045260246000fd5b600060208284031215612a7c57600080fd5b815161129d81612749565b60008351612a998184602088016124fd565b835190830190612aad8183602088016124fd565b01949350505050565b8082018281126000831280158216821582161715612ad657612ad66129b8565b505092915050565b60208082526025908201527f4552433732313a207472616e736665722066726f6d20696e636f72726563742060408201526437bbb732b960d91b606082015260800190565b60208082526032908201527f4552433732313a207472616e7366657220746f206e6f6e20455243373231526560408201527131b2b4bb32b91034b6b83632b6b2b73a32b960711b606082015260800190565b634e487b7160e01b600052603160045260246000fd5b6001600160a01b0385811682528416602082015260408101839052608060608201819052600090612bbe90830184612521565b9695505050505050565b600060208284031215612bda57600080fd5b815161129d816124ca56fea264697066735822122064b775c914de91e4745e33e881e8b3cdf27f2b63ab21cb0fa1c1aa07604fa41c64736f6c63430008110033",
    "linkReferences": {}
  },
  "methodIdentifiers": {
    "DEPOSIT_MINIMUM()": "ae34b6e1",
    "MAX_COLLATERATION_RATIO()": "c6c53398",
    "MAX_SUPPLY()": "32cb6b0c",
    "MAX_XP()": "d9dee3d1",
    "MIN_XP()": "cc672ae2",
    "approve(address,uint256)": "095ea7b3",
    "balanceOf(address)": "70a08231",
    "burn(uint256)": "42966c68",
    "deposit(uint256,uint256)": "e2bbb158",
    "dyad()": "add95a51",
    "getApproved(uint256)": "081812fc",
    "idToNft(uint256)": "483afb2d",
    "isApprovedForAll(address,address)": "e985e9c5",
    "mintDyad(uint256)": "fb9103cc",
    "mintNft(address)": "e9c2e14b",
    "mintNftCopy(address,(uint256,int256,uint256),uint256)": "3924bc9a",
    "name()": "06fdde03",
    "numberOfMints()": "959f7857",
    "ownerOf(uint256)": "6352211e",
    "pool()": "16f0115b",
    "redeem(uint256,uint256)": "7cbc2373",
    "safeTransferFrom(address,address,uint256)": "42842e0e",
    "safeTransferFrom(address,address,uint256,bytes)": "b88d4fde",
    "setApprovalForAll(address,bool)": "a22cb465",
    "setPool(address)": "4437152a",
    "supportsInterface(bytes4)": "01ffc9a7",
    "symbol()": "95d89b41",
    "tokenByIndex(uint256)": "4f6ccce7",
    "tokenOfOwnerByIndex(address,uint256)": "2f745c59",
    "tokenURI(uint256)": "c87b56dd",
    "totalSupply()": "18160ddd",
    "transferFrom(address,address,uint256)": "23b872dd",
    "updateNft(uint256,(uint256,int256,uint256))": "46e85757",
    "updateXP(uint256,uint256)": "b0082cdf",
    "withdraw(uint256,uint256)": "441a3e70"
  },
  "id": 31
}