{
  "abi": [
    {
      "inputs": [],
      "stateMutability": "nonpayable",
      "type": "constructor"
    },
    {
      "anonymous": false,
      "inputs": [
        {
          "indexed": true,
          "internalType": "address",
          "name": "owner",
          "type": "address"
        },
        {
          "indexed": true,
          "internalType": "address",
          "name": "spender",
          "type": "address"
        },
        {
          "indexed": false,
          "internalType": "uint256",
          "name": "value",
          "type": "uint256"
        }
      ],
      "name": "Approval",
      "type": "event"
    },
    {
      "anonymous": false,
      "inputs": [
        {
          "indexed": true,
          "internalType": "address",
          "name": "from",
          "type": "address"
        },
        {
          "indexed": true,
          "internalType": "address",
          "name": "to",
          "type": "address"
        },
        {
          "indexed": false,
          "internalType": "uint256",
          "name": "value",
          "type": "uint256"
        }
      ],
      "name": "Transfer",
      "type": "event"
    },
    {
      "inputs": [
        {
          "internalType": "address",
          "name": "owner",
          "type": "address"
        },
        {
          "internalType": "address",
          "name": "spender",
          "type": "address"
        }
      ],
      "name": "allowance",
      "outputs": [
        {
          "internalType": "uint256",
          "name": "",
          "type": "uint256"
        }
      ],
      "stateMutability": "view",
      "type": "function"
    },
    {
      "inputs": [
        {
          "internalType": "address",
          "name": "spender",
          "type": "address"
        },
        {
          "internalType": "uint256",
          "name": "amount",
          "type": "uint256"
        }
      ],
      "name": "approve",
      "outputs": [
        {
          "internalType": "bool",
          "name": "",
          "type": "bool"
        }
      ],
      "stateMutability": "nonpayable",
      "type": "function"
    },
    {
      "inputs": [
        {
          "internalType": "address",
          "name": "account",
          "type": "address"
        }
      ],
      "name": "balanceOf",
      "outputs": [
        {
          "internalType": "uint256",
          "name": "",
          "type": "uint256"
        }
      ],
      "stateMutability": "view",
      "type": "function"
    },
    {
      "inputs": [
        {
          "internalType": "uint256",
          "name": "amount",
          "type": "uint256"
        }
      ],
      "name": "burn",
      "outputs": [],
      "stateMutability": "nonpayable",
      "type": "function"
    },
    {
      "inputs": [
        {
          "internalType": "address",
          "name": "account",
          "type": "address"
        },
        {
          "internalType": "uint256",
          "name": "amount",
          "type": "uint256"
        }
      ],
      "name": "burnFrom",
      "outputs": [],
      "stateMutability": "nonpayable",
      "type": "function"
    },
    {
      "inputs": [],
      "name": "decimals",
      "outputs": [
        {
          "internalType": "uint8",
          "name": "",
          "type": "uint8"
        }
      ],
      "stateMutability": "view",
      "type": "function"
    },
    {
      "inputs": [
        {
          "internalType": "address",
          "name": "spender",
          "type": "address"
        },
        {
          "internalType": "uint256",
          "name": "subtractedValue",
          "type": "uint256"
        }
      ],
      "name": "decreaseAllowance",
      "outputs": [
        {
          "internalType": "bool",
          "name": "",
          "type": "bool"
        }
      ],
      "stateMutability": "nonpayable",
      "type": "function"
    },
    {
      "inputs": [
        {
          "internalType": "address",
          "name": "spender",
          "type": "address"
        },
        {
          "internalType": "uint256",
          "name": "addedValue",
          "type": "uint256"
        }
      ],
      "name": "increaseAllowance",
      "outputs": [
        {
          "internalType": "bool",
          "name": "",
          "type": "bool"
        }
      ],
      "stateMutability": "nonpayable",
      "type": "function"
    },
    {
      "inputs": [
        {
          "internalType": "address",
          "name": "to",
          "type": "address"
        },
        {
          "internalType": "uint256",
          "name": "amount",
          "type": "uint256"
        }
      ],
      "name": "mint",
      "outputs": [],
      "stateMutability": "nonpayable",
      "type": "function"
    },
    {
      "inputs": [],
      "name": "minter",
      "outputs": [
        {
          "internalType": "address",
          "name": "",
          "type": "address"
        }
      ],
      "stateMutability": "view",
      "type": "function"
    },
    {
      "inputs": [],
      "name": "name",
      "outputs": [
        {
          "internalType": "string",
          "name": "",
          "type": "string"
        }
      ],
      "stateMutability": "view",
      "type": "function"
    },
    {
      "inputs": [
        {
          "internalType": "address",
          "name": "newMinter",
          "type": "address"
        }
      ],
      "name": "setMinter",
      "outputs": [],
      "stateMutability": "nonpayable",
      "type": "function"
    },
    {
      "inputs": [],
      "name": "symbol",
      "outputs": [
        {
          "internalType": "string",
          "name": "",
          "type": "string"
        }
      ],
      "stateMutability": "view",
      "type": "function"
    },
    {
      "inputs": [],
      "name": "totalSupply",
      "outputs": [
        {
          "internalType": "uint256",
          "name": "",
          "type": "uint256"
        }
      ],
      "stateMutability": "view",
      "type": "function"
    },
    {
      "inputs": [
        {
          "internalType": "address",
          "name": "to",
          "type": "address"
        },
        {
          "internalType": "uint256",
          "name": "amount",
          "type": "uint256"
        }
      ],
      "name": "transfer",
      "outputs": [
        {
          "internalType": "bool",
          "name": "",
          "type": "bool"
        }
      ],
      "stateMutability": "nonpayable",
      "type": "function"
    },
    {
      "inputs": [
        {
          "internalType": "address",
          "name": "from",
          "type": "address"
        },
        {
          "internalType": "address",
          "name": "to",
          "type": "address"
        },
        {
          "internalType": "uint256",
          "name": "amount",
          "type": "uint256"
        }
      ],
      "name": "transferFrom",
      "outputs": [
        {
          "internalType": "bool",
          "name": "",
          "type": "bool"
        }
      ],
      "stateMutability": "nonpayable",
      "type": "function"
    }
  ],
  "bytecode": {
    "object": "0x60806040523480156200001157600080fd5b506040518060400160405280600f81526020016e222ca0a21029ba30b13632b1b7b4b760891b815250604051806040016040528060048152602001631116505160e21b815250816003908162000068919062000137565b50600462000077828262000137565b5050600580546001600160a01b031916331790555062000203565b634e487b7160e01b600052604160045260246000fd5b600181811c90821680620000bd57607f821691505b602082108103620000de57634e487b7160e01b600052602260045260246000fd5b50919050565b601f8211156200013257600081815260208120601f850160051c810160208610156200010d5750805b601f850160051c820191505b818110156200012e5782815560010162000119565b5050505b505050565b81516001600160401b0381111562000153576200015362000092565b6200016b81620001648454620000a8565b84620000e4565b602080601f831160018114620001a357600084156200018a5750858301515b600019600386901b1c1916600185901b1785556200012e565b600085815260208120601f198616915b82811015620001d457888601518255948401946001909101908401620001b3565b5085821015620001f35787850151600019600388901b60f8161c191681555b5050505050600190811b01905550565b610c2280620002136000396000f3fe608060405234801561001057600080fd5b50600436106101005760003560e01c806342966c6811610097578063a457c2d711610066578063a457c2d714610224578063a9059cbb14610237578063dd62ed3e1461024a578063fca3b5aa1461025d57600080fd5b806342966c68146101cd57806370a08231146101e057806379cc67901461020957806395d89b411461021c57600080fd5b806323b872dd116100d357806323b872dd14610183578063313ce5671461019657806339509351146101a557806340c10f19146101b857600080fd5b806306fdde03146101055780630754617214610123578063095ea7b31461014e57806318160ddd14610171575b600080fd5b61010d610270565b60405161011a9190610a53565b60405180910390f35b600554610136906001600160a01b031681565b6040516001600160a01b03909116815260200161011a565b61016161015c366004610abd565b610302565b604051901515815260200161011a565b6002545b60405190815260200161011a565b610161610191366004610ae7565b61031c565b6040516012815260200161011a565b6101616101b3366004610abd565b610340565b6101cb6101c6366004610abd565b610362565b005b6101cb6101db366004610b23565b6103c6565b6101756101ee366004610b3c565b6001600160a01b031660009081526020819052604090205490565b6101cb610217366004610abd565b6103d3565b61010d6103e8565b610161610232366004610abd565b6103f7565b610161610245366004610abd565b610472565b610175610258366004610b5e565b610480565b6101cb61026b366004610b3c565b6104ab565b60606003805461027f90610b91565b80601f01602080910402602001604051908101604052809291908181526020018280546102ab90610b91565b80156102f85780601f106102cd576101008083540402835291602001916102f8565b820191906000526020600020905b8154815290600101906020018083116102db57829003601f168201915b5050505050905090565b600033610310818585610527565b60019150505b92915050565b60003361032a85828561064c565b6103358585856106c6565b506001949350505050565b6000336103108185856103538383610480565b61035d9190610bcb565b610527565b6005546001600160a01b031633146103b85760405162461bcd60e51b815260206004820152601460248201527313db9b1e481b5a5b9d195c8818d85b881b5a5b9d60621b60448201526064015b60405180910390fd5b6103c2828261086a565b5050565b6103d03382610929565b50565b6103de82338361064c565b6103c28282610929565b60606004805461027f90610b91565b600033816104058286610480565b9050838110156104655760405162461bcd60e51b815260206004820152602560248201527f45524332303a2064656372656173656420616c6c6f77616e63652062656c6f77604482015264207a65726f60d81b60648201526084016103af565b6103358286868403610527565b6000336103108185856106c6565b6001600160a01b03918216600090815260016020908152604080832093909416825291909152205490565b6005546001600160a01b031633146105055760405162461bcd60e51b815260206004820152601a60248201527f4f6e6c79206d696e7465722063616e20736574206d696e74657200000000000060448201526064016103af565b600580546001600160a01b0319166001600160a01b0392909216919091179055565b6001600160a01b0383166105895760405162461bcd60e51b8152602060048201526024808201527f45524332303a20617070726f76652066726f6d20746865207a65726f206164646044820152637265737360e01b60648201526084016103af565b6001600160a01b0382166105ea5760405162461bcd60e51b815260206004820152602260248201527f45524332303a20617070726f766520746f20746865207a65726f206164647265604482015261737360f01b60648201526084016103af565b6001600160a01b0383811660008181526001602090815260408083209487168084529482529182902085905590518481527f8c5be1e5ebec7d5bd14f71427d1e84f3dd0314c0f7b2291e5b200ac8c7c3b92591015b60405180910390a3505050565b60006106588484610480565b905060001981146106c057818110156106b35760405162461bcd60e51b815260206004820152601d60248201527f45524332303a20696e73756666696369656e7420616c6c6f77616e636500000060448201526064016103af565b6106c08484848403610527565b50505050565b6001600160a01b03831661072a5760405162461bcd60e51b815260206004820152602560248201527f45524332303a207472616e736665722066726f6d20746865207a65726f206164604482015264647265737360d81b60648201526084016103af565b6001600160a01b03821661078c5760405162461bcd60e51b815260206004820152602360248201527f45524332303a207472616e7366657220746f20746865207a65726f206164647260448201526265737360e81b60648201526084016103af565b6001600160a01b038316600090815260208190526040902054818110156108045760405162461bcd60e51b815260206004820152602660248201527f45524332303a207472616e7366657220616d6f756e7420657863656564732062604482015265616c616e636560d01b60648201526084016103af565b6001600160a01b03848116600081815260208181526040808320878703905593871680835291849020805487019055925185815290927fddf252ad1be2c89b69c2b068fc378daa952ba7f163c4a11628f55a4df523b3ef910160405180910390a36106c0565b6001600160a01b0382166108c05760405162461bcd60e51b815260206004820152601f60248201527f45524332303a206d696e7420746f20746865207a65726f20616464726573730060448201526064016103af565b80600260008282546108d29190610bcb565b90915550506001600160a01b038216600081815260208181526040808320805486019055518481527fddf252ad1be2c89b69c2b068fc378daa952ba7f163c4a11628f55a4df523b3ef910160405180910390a35050565b6001600160a01b0382166109895760405162461bcd60e51b815260206004820152602160248201527f45524332303a206275726e2066726f6d20746865207a65726f206164647265736044820152607360f81b60648201526084016103af565b6001600160a01b038216600090815260208190526040902054818110156109fd5760405162461bcd60e51b815260206004820152602260248201527f45524332303a206275726e20616d6f756e7420657863656564732062616c616e604482015261636560f01b60648201526084016103af565b6001600160a01b0383166000818152602081815260408083208686039055600280548790039055518581529192917fddf252ad1be2c89b69c2b068fc378daa952ba7f163c4a11628f55a4df523b3ef910161063f565b600060208083528351808285015260005b81811015610a8057858101830151858201604001528201610a64565b506000604082860101526040601f19601f8301168501019250505092915050565b80356001600160a01b0381168114610ab857600080fd5b919050565b60008060408385031215610ad057600080fd5b610ad983610aa1565b946020939093013593505050565b600080600060608486031215610afc57600080fd5b610b0584610aa1565b9250610b1360208501610aa1565b9150604084013590509250925092565b600060208284031215610b3557600080fd5b5035919050565b600060208284031215610b4e57600080fd5b610b5782610aa1565b9392505050565b60008060408385031215610b7157600080fd5b610b7a83610aa1565b9150610b8860208401610aa1565b90509250929050565b600181811c90821680610ba557607f821691505b602082108103610bc557634e487b7160e01b600052602260045260246000fd5b50919050565b8082018082111561031657634e487b7160e01b600052601160045260246000fdfea26469706673582212201ecac50b956c29bfda65e9a2729d0e8f43fef29452d05c9ac48063a67b39c0ad64736f6c63430008110033",
    "linkReferences": {}
  },
  "methodIdentifiers": {
    "allowance(address,address)": "dd62ed3e",
    "approve(address,uint256)": "095ea7b3",
    "balanceOf(address)": "70a08231",
    "burn(uint256)": "42966c68",
    "burnFrom(address,uint256)": "79cc6790",
    "decimals()": "313ce567",
    "decreaseAllowance(address,uint256)": "a457c2d7",
    "increaseAllowance(address,uint256)": "39509351",
    "mint(address,uint256)": "40c10f19",
    "minter()": "07546172",
    "name()": "06fdde03",
    "setMinter(address)": "fca3b5aa",
    "symbol()": "95d89b41",
    "totalSupply()": "18160ddd",
    "transfer(address,uint256)": "a9059cbb",
    "transferFrom(address,address,uint256)": "23b872dd"
  },
  "id": 29
}