{
  "abi": [
    {
      "inputs": [
        {
          "internalType": "address",
          "name": "_dnft",
          "type": "address"
        },
        {
          "internalType": "address",
          "name": "_dyad",
          "type": "address"
        },
        {
          "internalType": "address",
          "name": "oracle",
          "type": "address"
        }
      ],
      "stateMutability": "nonpayable",
      "type": "constructor"
    },
    {
      "anonymous": false,
      "inputs": [
        {
          "indexed": true,
          "internalType": "uint256",
          "name": "id",
          "type": "uint256"
        },
        {
          "indexed": true,
          "internalType": "address",
          "name": "from",
          "type": "address"
        },
        {
          "indexed": true,
          "internalType": "address",
          "name": "to",
          "type": "address"
        }
      ],
      "name": "NftClaimed",
      "type": "event"
    },
    {
      "anonymous": false,
      "inputs": [
        {
          "indexed": false,
          "internalType": "uint256",
          "name": "newEthPrice",
          "type": "uint256"
        }
      ],
      "name": "Synced",
      "type": "event"
    },
    {
      "inputs": [
        {
          "internalType": "uint256",
          "name": "id",
          "type": "uint256"
        },
        {
          "internalType": "address",
          "name": "receiver",
          "type": "address"
        }
      ],
      "name": "claim",
      "outputs": [
        {
          "internalType": "uint256",
          "name": "",
          "type": "uint256"
        }
      ],
      "stateMutability": "payable",
      "type": "function"
    },
    {
      "inputs": [
        {
          "internalType": "uint256",
          "name": "amount",
          "type": "uint256"
        }
      ],
      "name": "deposit",
      "outputs": [],
      "stateMutability": "nonpayable",
      "type": "function"
    },
    {
      "inputs": [],
      "name": "dnft",
      "outputs": [
        {
          "internalType": "contract IdNFT",
          "name": "",
          "type": "address"
        }
      ],
      "stateMutability": "view",
      "type": "function"
    },
    {
      "inputs": [],
      "name": "dyad",
      "outputs": [
        {
          "internalType": "contract DYAD",
          "name": "",
          "type": "address"
        }
      ],
      "stateMutability": "view",
      "type": "function"
    },
    {
      "inputs": [],
      "name": "lastEthPrice",
      "outputs": [
        {
          "internalType": "uint256",
          "name": "",
          "type": "uint256"
        }
      ],
      "stateMutability": "view",
      "type": "function"
    },
    {
      "inputs": [
        {
          "internalType": "uint256",
          "name": "minAmount",
          "type": "uint256"
        }
      ],
      "name": "mintDyad",
      "outputs": [
        {
          "internalType": "uint256",
          "name": "",
          "type": "uint256"
        }
      ],
      "stateMutability": "payable",
      "type": "function"
    },
    {
      "inputs": [
        {
          "internalType": "address",
          "name": "receiver",
          "type": "address"
        },
        {
          "internalType": "uint256",
          "name": "amount",
          "type": "uint256"
        }
      ],
      "name": "redeem",
      "outputs": [],
      "stateMutability": "nonpayable",
      "type": "function"
    },
    {
      "inputs": [],
      "name": "sync",
      "outputs": [
        {
          "internalType": "uint256",
          "name": "",
          "type": "uint256"
        }
      ],
      "stateMutability": "nonpayable",
      "type": "function"
    },
    {
      "inputs": [
        {
          "internalType": "address",
          "name": "receiver",
          "type": "address"
        },
        {
          "internalType": "uint256",
          "name": "amount",
          "type": "uint256"
        }
      ],
      "name": "withdraw",
      "outputs": [],
      "stateMutability": "nonpayable",
      "type": "function"
    }
  ],
  "bytecode": {
    "object": "0x60806040523480156200001157600080fd5b5060405162001cad38038062001cad833981016040819052620000349162000120565b600180546001600160a01b038086166001600160a01b0319928316179092556002805485841690831617905560038054928416929091169190911790556200007b62000088565b60005550620001d7915050565b60035460408051633fabe5a360e21b815290516000926001600160a01b03169163feaf968c9160048083019260a09291908290030181865afa158015620000d3573d6000803e3d6000fd5b505050506040513d601f19601f82011682018060405250810190620000f9919062000182565b5091949350505050565b80516001600160a01b03811681146200011b57600080fd5b919050565b6000806000606084860312156200013657600080fd5b620001418462000103565b9250620001516020850162000103565b9150620001616040850162000103565b90509250925092565b80516001600160501b03811681146200011b57600080fd5b600080600080600060a086880312156200019b57600080fd5b620001a6866200016a565b9450602086015193506040860151925060608601519150620001cb608087016200016a565b90509295509295909350565b611ac680620001e76000396000f3fe6080604052600436106100865760003560e01c8063b6b55f2511610059578063b6b55f251461012e578063ddd5e1b21461014e578063f3fef3a314610161578063fb9103cc14610181578063fff6cae91461019457600080fd5b80631e9a69501461008b5780637038fc4e146100ad578063926fe324146100d6578063add95a511461010e575b600080fd5b34801561009757600080fd5b506100ab6100a636600461170a565b6101a9565b005b3480156100b957600080fd5b506100c360005481565b6040519081526020015b60405180910390f35b3480156100e257600080fd5b506001546100f6906001600160a01b031681565b6040516001600160a01b0390911681526020016100cd565b34801561011a57600080fd5b506002546100f6906001600160a01b031681565b34801561013a57600080fd5b506100ab610149366004611736565b610297565b6100c361015c36600461174f565b610340565b34801561016d57600080fd5b506100ab61017c36600461170a565b6105be565b6100c361018f366004611736565b610664565b3480156101a057600080fd5b506100c36107d2565b6001546001600160a01b031633146101dc5760405162461bcd60e51b81526004016101d39061177f565b60405180910390fd5b600254604051630852cd8d60e31b8152600481018390526001600160a01b03909116906342966c6890602401600060405180830381600087803b15801561022257600080fd5b505af1158015610236573d6000803e3d6000fd5b5050505060008054826305f5e10061024e91906117d8565b61025891906117ef565b6040519091506001600160a01b0384169082156108fc029083906000818181858888f19350505050158015610291573d6000803e3d6000fd5b50505050565b6001546001600160a01b031633146102c15760405162461bcd60e51b81526004016101d39061177f565b6002546040516323b872dd60e01b8152336004820152306024820152604481018390526001600160a01b03909116906323b872dd906064016020604051808303816000875af1158015610318573d6000803e3d6000fd5b505050506040513d601f19601f8201168201806040525081019061033c9190611811565b5050565b60015460405163483afb2d60e01b81526004810184905260009182916001600160a01b039091169063483afb2d90602401606060405180830381865afa15801561038e573d6000803e3d6000fd5b505050506040513d601f19601f820116820180604052508101906103b29190611849565b6001546040516331a9108f60e11b8152600481018790529192506001600160a01b0385811692911690636352211e90602401602060405180830381865afa158015610401573d6000803e3d6000fd5b505050506040513d601f19601f8201168201806040525081019061042591906118b3565b6001600160a01b0316857f62f2b0e4889a8f1f033f49a00b0f19dde517bdf2fd1a73367a71f4b188769cc460405160405180910390a4600154604051630852cd8d60e31b8152600481018690526001600160a01b03909116906342966c6890602401600060405180830381600087803b1580156104a157600080fd5b505af11580156104b5573d6000803e3d6000fd5b50505050600081602001511261050d5760405162461bcd60e51b815260206004820152601d60248201527f644e46543a204e4654206973206e6f74206c6971756964617461626c6500000060448201526064016101d3565b60006305f5e1006000548360200151610525906118d0565b61052f91906117d8565b61053991906117ef565b600154604051631c925e4d60e11b81529192506001600160a01b031690633924bc9a903490610570908890879087906004016118ec565b60206040518083038185885af115801561058e573d6000803e3d6000fd5b50505050506040513d601f19601f820116820180604052508101906105b3919061192b565b925050505b92915050565b6001546001600160a01b031633146105e85760405162461bcd60e51b81526004016101d39061177f565b60025460405163a9059cbb60e01b81526001600160a01b038481166004830152602482018490529091169063a9059cbb906044016020604051808303816000875af115801561063b573d6000803e3d6000fd5b505050506040513d601f19601f8201168201806040525081019061065f9190611811565b505050565b6001546000906001600160a01b031633146106915760405162461bcd60e51b81526004016101d39061177f565b600034116106e15760405162461bcd60e51b815260206004820152601f60248201527f506f6f6c3a20596f75206e65656420746f2073656e6420736f6d65204554480060448201526064016101d3565b60006305f5e100346106f1610980565b6106fb91906117d8565b61070591906117ef565b9050828110156107655760405162461bcd60e51b815260206004820152602560248201527f506f6f6c3a206d696e74447961643a206d696e416d6f756e74206e6f742072656044820152641858da195960da1b60648201526084016101d3565b6002546040516340c10f1960e01b8152336004820152602481018390526001600160a01b03909116906340c10f1990604401600060405180830381600087803b1580156107b157600080fd5b505af11580156107c5573d6000803e3d6000fd5b509293505050505b919050565b6000806107dd610980565b90506000805482116107f05760006107f3565b60015b9050600080548361271061080791906117d8565b61081191906117ef565b9050600082600181111561082757610827611944565b14610840576108386127108261195a565b905080610850565b61084c8161271061195a565b9050805b50600061085d82846109f8565b9050600183600181111561087357610873611944565b146108db57600254604051630852cd8d60e31b8152600481018390526001600160a01b03909116906342966c6890602401600060405180830381600087803b1580156108be57600080fd5b505af11580156108d2573d6000803e3d6000fd5b50505050610940565b6002546040516340c10f1960e01b8152306004820152602481018390526001600160a01b03909116906340c10f1990604401600060405180830381600087803b15801561092757600080fd5b505af115801561093b573d6000803e3d6000fd5b505050505b60008490556040518481527fff14d8520387b9b85d2a017dc41ae15db04a22d4c67deac04eb45048631ffa869060200160405180910390a1949350505050565b60035460408051633fabe5a360e21b815290516000926001600160a01b03169163feaf968c9160048083019260a09291908290030181865afa1580156109ca573d6000803e3d6000fd5b505050506040513d601f19601f820116820180604052508101906109ee9190611987565b5091949350505050565b600254604080516318160ddd60e01b8152905160009283928392610a74926001600160a01b0316916318160ddd9160048083019260209291908290030181865afa158015610a4a573d6000803e3d6000fd5b505050506040513d601f19601f82011682018060405250810190610a6e919061192b565b86610f32565b90506000610a8185610f52565b6001546040805163d9dee3d160e01b81529051929350600019926000926001600160a01b03169163d9dee3d19160048083019260209291908290030181865afa158015610ad2573d6000803e3d6000fd5b505050506040513d601f19601f82011682018060405250810190610af6919061192b565b905060005b600160009054906101000a90046001600160a01b03166001600160a01b03166318160ddd6040518163ffffffff1660e01b8152600401602060405180830381865afa158015610b4e573d6000803e3d6000fd5b505050506040513d601f19601f82011682018060405250810190610b72919061192b565b811015610ec057600154604051634f6ccce760e01b8152600481018390526000916001600160a01b031690634f6ccce7906024016020604051808303816000875af1158015610bc5573d6000803e3d6000fd5b505050506040513d601f19601f82011682018060405250810190610be9919061192b565b90506000856020015186600001518481518110610c0857610c086119d7565b6020026020010151612710610c1d91906117d8565b610c2791906117ef565b90506000610c358883610f32565b60015460405163483afb2d60e01b8152600481018690529192506000916001600160a01b039091169063483afb2d90602401606060405180830381865afa158015610c84573d6000803e3d6000fd5b505050506040513d601f19601f82011682018060405250810190610ca89190611849565b90506000808d6001811115610cbf57610cbf611944565b148015610cd0575060008260200151135b15610dbc5788604001518681518110610ceb57610ceb6119d7565b6020026020010151836064610d0091906117d8565b610d0a91906117ef565b90508a158015610d9757506001546040516331a9108f60e11b8152600481018790526001600160a01b0390911690636352211e90602401602060405180830381865afa158015610d5e573d6000803e3d6000fd5b505050506040513d601f19601f82011682018060405250810190610d8291906118b3565b6001600160a01b0316336001600160a01b0316145b15610dbc5760019a50610daf8260400151600a610f32565b610db990826119ed565b90505b60008d6001811115610dd057610dd0611944565b03610e06578282602001818151610de79190611a00565b905250604082018051829190610dfe9083906119ed565b905250610e1c565b8282602001818151610e189190611a27565b9052505b6001546040516346e8575760e01b81526001600160a01b03909116906346e8575790610e4e9088908690600401611a4f565b600060405180830381600087803b158015610e6857600080fd5b505af1158015610e7c573d6000803e3d6000fd5b505050508782604001511015610e9457816040015197505b8682604001511115610ea857816040015196505b50505050508080610eb890611a77565b915050610afb565b5060015460405163b0082cdf60e01b815260048101849052602481018390526001600160a01b039091169063b0082cdf90604401600060405180830381600087803b158015610f0e57600080fd5b505af1158015610f22573d6000803e3d6000fd5b50959a9950505050505050505050565b6000612710610f4183856117d8565b610f4b91906117ef565b9392505050565b610f7660405180606001604052806060815260200160008152602001606081525090565b600154604080516318160ddd60e01b815290516000926001600160a01b0316916318160ddd9160048083019260209291908290030181865afa158015610fc0573d6000803e3d6000fd5b505050506040513d601f19601f82011682018060405250810190610fe4919061192b565b90506000808267ffffffffffffffff81111561100257611002611833565b60405190808252806020026020018201604052801561102b578160200160208202803683370190505b50905060008367ffffffffffffffff81111561104957611049611833565b604051908082528060200260200182016040528015611072578160200160208202803683370190505b50905060005b848110156114d457600154604051634f6ccce760e01b8152600481018390526000916001600160a01b03169063483afb2d908290634f6ccce7906024016020604051808303816000875af11580156110d4573d6000803e3d6000fd5b505050506040513d601f19601f820116820180604052508101906110f8919061192b565b6040518263ffffffff1660e01b815260040161111691815260200190565b606060405180830381865afa158015611133573d6000803e3d6000fd5b505050506040513d601f19601f820116820180604052508101906111579190611849565b90506000806000836020015113156114755760015460408051636633957160e11b815290516000926001600160a01b03169163cc672ae29160048083019260209291908290030181865afa1580156111b3573d6000803e3d6000fd5b505050506040513d601f19601f820116820180604052508101906111d7919061192b565b600160009054906101000a90046001600160a01b03166001600160a01b031663d9dee3d16040518163ffffffff1660e01b8152600401602060405180830381865afa15801561122a573d6000803e3d6000fd5b505050506040513d601f19601f8201168201806040525081019061124e919061192b565b611258919061195a565b905080600003611266575060015b600081600160009054906101000a90046001600160a01b03166001600160a01b031663cc672ae26040518163ffffffff1660e01b8152600401602060405180830381865afa1580156112bc573d6000803e3d6000fd5b505050506040513d601f19601f820116820180604052508101906112e0919061192b565b86604001516112ef919061195a565b6112fb906127106117d8565b61130591906117ef565b905060008a600260009054906101000a90046001600160a01b03166001600160a01b03166318160ddd6040518163ffffffff1660e01b8152600401602060405180830381865afa15801561135d573d6000803e3d6000fd5b505050506040513d601f19601f82011682018060405250810190611381919061192b565b61138b91906117ef565b6113969060016119ed565b602087015187516113a791906119ed565b6113b3906127106117d8565b6113bd91906117ef565b90506113d26113cd6064846117ef565b611505565b935060008d60018111156113e8576113e8611944565b036113fc576113f98461012c61195a565b93505b8551602087015160009161140f916119ed565b61141a9060016119ed565b602088015161142b906127106117d8565b61143591906117ef565b9050606460008f600181111561144d5761144d611944565b14611458578161145a565b825b61146490876117d8565b61146e91906117ef565b9550505050505b81868581518110611488576114886119d7565b602090810291909101015261149d82886119ed565b9650808585815181106114b2576114b26119d7565b60200260200101818152505050505080806114cc90611a77565b915050611078565b50826000036114e257600192505b604080516060810182529283526020830193909352918101919091529392505050565b6000606482111561156e5760405162461bcd60e51b815260206004820152602d60248201527f506f6f6c4c6962726172793a207870206f7574206f662072616e67652028302060448201526c3c3d207870203c3d203130302960981b60648201526084016101d3565b603d82101561157f57506032919050565b604080516105008101825260338082526020820181905291810182905260608101919091526034608080830191909152603560a080840182905260c0840191909152603660e084015260376101008401526039610120840152603a610140840152603c610160840152603f61018084015260426101a084015260456101c0840152604a6101e0840152604f6102008401526055610220840152605c6102408401526063610260840152606c61028084015260766102a08401526102c0830191909152608b6102e0830152609661030083015261032082015260ab61034082015260b561036082015260bf61038082015260c86103a082015260cf6103c082015260d66103e082015260dc61040082015260e161042082015260e661044082015260e961046082015260ec61048082015260ef6104a082015260f16104c082015260f26104e0820152806116d3603d8561195a565b602881106116e3576116e36119d7565b602002015160ff169392505050565b6001600160a01b038116811461170757600080fd5b50565b6000806040838503121561171d57600080fd5b8235611728816116f2565b946020939093013593505050565b60006020828403121561174857600080fd5b5035919050565b6000806040838503121561176257600080fd5b823591506020830135611774816116f2565b809150509250929050565b60208082526023908201527f506f6f6c3a204f6e6c792063616c6c61626c65206279204e465420636f6e74726040820152621858dd60ea1b606082015260800190565b634e487b7160e01b600052601160045260246000fd5b80820281158282048414176105b8576105b86117c2565b60008261180c57634e487b7160e01b600052601260045260246000fd5b500490565b60006020828403121561182357600080fd5b81518015158114610f4b57600080fd5b634e487b7160e01b600052604160045260246000fd5b60006060828403121561185b57600080fd5b6040516060810181811067ffffffffffffffff8211171561188c57634e487b7160e01b600052604160045260246000fd5b80604052508251815260208301516020820152604083015160408201528091505092915050565b6000602082840312156118c557600080fd5b8151610f4b816116f2565b6000600160ff1b82016118e5576118e56117c2565b5060000390565b6001600160a01b038416815260a0810161191d60208301858051825260208082015190830152604090810151910152565b826080830152949350505050565b60006020828403121561193d57600080fd5b5051919050565b634e487b7160e01b600052602160045260246000fd5b818103818111156105b8576105b86117c2565b805169ffffffffffffffffffff811681146107cd57600080fd5b600080600080600060a0868803121561199f57600080fd5b6119a88661196d565b94506020860151935060408601519250606086015191506119cb6080870161196d565b90509295509295909350565b634e487b7160e01b600052603260045260246000fd5b808201808211156105b8576105b86117c2565b8181036000831280158383131683831282161715611a2057611a206117c2565b5092915050565b8082018281126000831280158216821582161715611a4757611a476117c2565b505092915050565b82815260808101610f4b60208301848051825260208082015190830152604090810151910152565b600060018201611a8957611a896117c2565b506001019056fea264697066735822122025459ec7482c51aa0aa41ae495f2ddfa087488b31e96c8d08884205fd44aa3fd64736f6c63430008110033",
    "linkReferences": {}
  },
  "methodIdentifiers": {
    "claim(uint256,address)": "ddd5e1b2",
    "deposit(uint256)": "b6b55f25",
    "dnft()": "926fe324",
    "dyad()": "add95a51",
    "lastEthPrice()": "7038fc4e",
    "mintDyad(uint256)": "fb9103cc",
    "redeem(address,uint256)": "1e9a6950",
    "sync()": "fff6cae9",
    "withdraw(address,uint256)": "f3fef3a3"
  },
  "id": 27
}